{
  "_format": "hh-sol-artifact-1",
  "contractName": "NoncesTest",
  "sourceName": "src/contracts/test/NoncesTest.sol",
  "abi": [
    {
      "inputs": [
        {
          "internalType": "address",
          "name": "account",
          "type": "address"
        },
        {
          "internalType": "uint256",
          "name": "currentNonce",
          "type": "uint256"
        }
      ],
      "name": "InvalidAccountNonce",
      "type": "error"
    },
    {
      "inputs": [
        {
          "internalType": "address",
          "name": "owner",
          "type": "address"
        }
      ],
      "name": "getNonce",
      "outputs": [
        {
          "internalType": "uint256",
          "name": "",
          "type": "uint256"
        }
      ],
      "stateMutability": "view",
      "type": "function"
    },
    {
      "inputs": [
        {
          "internalType": "address",
          "name": "owner",
          "type": "address"
        }
      ],
      "name": "nonces",
      "outputs": [
        {
          "internalType": "uint256",
          "name": "",
          "type": "uint256"
        }
      ],
      "stateMutability": "view",
      "type": "function"
    },
    {
      "inputs": [
        {
          "internalType": "address",
          "name": "owner",
          "type": "address"
        }
      ],
      "name": "useNonce",
      "outputs": [
        {
          "internalType": "uint256",
          "name": "",
          "type": "uint256"
        }
      ],
      "stateMutability": "nonpayable",
      "type": "function"
    }
  ],
  "bytecode": "0x608060405234801561001057600080fd5b50610153806100206000396000f3fe608060405234801561001057600080fd5b50600436106100415760003560e01c80632d0335ab146100465780637ecebe001461006b578063d97f4b5314610094575b600080fd5b6100596100543660046100ed565b6100a7565b60405190815260200160405180910390f35b6100596100793660046100ed565b6001600160a01b031660009081526020819052604090205490565b6100596100a23660046100ed565b6100c7565b6001600160a01b0381166000908152602081905260408120545b92915050565b6001600160a01b03811660009081526020819052604081208054600181019091556100c1565b6000602082840312156100ff57600080fd5b81356001600160a01b038116811461011657600080fd5b939250505056fea26469706673582212202f40dad729a560e8fa4fb491e92f8c36e283a153c7b77d6bea7c41a6eec7414d64736f6c63430008180033",
  "linkReferences": {},
  "deployedLinkReferences": {}
}