{
  "_format": "hh-sol-artifact-1",
  "contractName": "PausableTest",
  "sourceName": "src/contracts/test/PausableTest.sol",
  "abi": [
    {
      "inputs": [],
      "stateMutability": "nonpayable",
      "type": "constructor"
    },
    {
      "inputs": [],
      "name": "EnforcedPause",
      "type": "error"
    },
    {
      "inputs": [],
      "name": "ExpectedPause",
      "type": "error"
    },
    {
      "anonymous": false,
      "inputs": [
        {
          "indexed": false,
          "internalType": "address",
          "name": "account",
          "type": "address"
        }
      ],
      "name": "Paused",
      "type": "event"
    },
    {
      "anonymous": false,
      "inputs": [
        {
          "indexed": false,
          "internalType": "address",
          "name": "account",
          "type": "address"
        }
      ],
      "name": "Unpaused",
      "type": "event"
    },
    {
      "inputs": [],
      "name": "pause",
      "outputs": [],
      "stateMutability": "nonpayable",
      "type": "function"
    },
    {
      "inputs": [],
      "name": "paused",
      "outputs": [
        {
          "internalType": "bool",
          "name": "",
          "type": "bool"
        }
      ],
      "stateMutability": "view",
      "type": "function"
    },
    {
      "inputs": [],
      "name": "testWhenNotPaused",
      "outputs": [
        {
          "internalType": "bool",
          "name": "",
          "type": "bool"
        }
      ],
      "stateMutability": "view",
      "type": "function"
    },
    {
      "inputs": [],
      "name": "testWhenPaused",
      "outputs": [
        {
          "internalType": "bool",
          "name": "",
          "type": "bool"
        }
      ],
      "stateMutability": "view",
      "type": "function"
    },
    {
      "inputs": [],
      "name": "unpause",
      "outputs": [],
      "stateMutability": "nonpayable",
      "type": "function"
    }
  ],
  "bytecode": "0x608060405234801561001057600080fd5b50600080546101003302610100600160a81b031990911617905561026c806100396000396000f3fe608060405234801561001057600080fd5b50600436106100575760003560e01c80633f4ba83a1461005c5780635c975abb146100665780635d737a7e146100815780637b5b2336146100895780638456cb5914610091575b600080fd5b610064610099565b005b60005460ff165b604051901515815260200160405180910390f35b61006d6100f3565b61006d610103565b61006461010d565b60005461010090046001600160a01b031633146100e95760405162461bcd60e51b81526020600482015260096024820152682737ba1037bbb732b960b91b60448201526064015b60405180910390fd5b6100f1610160565b565b60006100fd6101b2565b50600190565b60006100fd6101d5565b60005461010090046001600160a01b031633146101585760405162461bcd60e51b81526020600482015260096024820152682737ba1037bbb732b960b91b60448201526064016100e0565b6100f16101f9565b6101686101b2565b6000805460ff191690557f5db9ee0a495bf2e6ff9c91a7834c1ba4fdd244a5e8aa4e537bd38aeae4b073aa335b6040516001600160a01b03909116815260200160405180910390a1565b60005460ff166100f157604051638dfc202b60e01b815260040160405180910390fd5b60005460ff16156100f15760405163d93c066560e01b815260040160405180910390fd5b6102016101d5565b6000805460ff191660011790557f62e78cea01bee320cd4e420270b5ea74000d11b0c9f74754ebdbfc544b05a258610195339056fea26469706673582212200061d3cd33377df94b819882b2301a8c81721fc6b2b11301097ce0b248a43db964736f6c63430008180033",
  "linkReferences": {},
  "deployedLinkReferences": {}
}