{
  "_format": "hh-sol-artifact-1",
  "contractName": "HRC20TokenFull",
  "sourceName": "src/contracts/HRC20TokenFull.sol",
  "abi": [
    {
      "inputs": [
        {
          "internalType": "string",
          "name": "name",
          "type": "string"
        },
        {
          "internalType": "string",
          "name": "symbol",
          "type": "string"
        },
        {
          "internalType": "uint256",
          "name": "totalSupply",
          "type": "uint256"
        },
        {
          "internalType": "address",
          "name": "owner",
          "type": "address"
        }
      ],
      "stateMutability": "nonpayable",
      "type": "constructor"
    },
    {
      "inputs": [],
      "name": "ECDSAInvalidSignature",
      "type": "error"
    },
    {
      "inputs": [
        {
          "internalType": "uint256",
          "name": "length",
          "type": "uint256"
        }
      ],
      "name": "ECDSAInvalidSignatureLength",
      "type": "error"
    },
    {
      "inputs": [
        {
          "internalType": "bytes32",
          "name": "s",
          "type": "bytes32"
        }
      ],
      "name": "ECDSAInvalidSignatureS",
      "type": "error"
    },
    {
      "inputs": [
        {
          "internalType": "uint256",
          "name": "deadline",
          "type": "uint256"
        }
      ],
      "name": "ERC2612ExpiredSignature",
      "type": "error"
    },
    {
      "inputs": [
        {
          "internalType": "address",
          "name": "signer",
          "type": "address"
        },
        {
          "internalType": "address",
          "name": "owner",
          "type": "address"
        }
      ],
      "name": "ERC2612InvalidSigner",
      "type": "error"
    },
    {
      "inputs": [],
      "name": "EnforcedPause",
      "type": "error"
    },
    {
      "inputs": [],
      "name": "ExpectedPause",
      "type": "error"
    },
    {
      "inputs": [
        {
          "internalType": "address",
          "name": "spender",
          "type": "address"
        },
        {
          "internalType": "uint256",
          "name": "allowance",
          "type": "uint256"
        },
        {
          "internalType": "uint256",
          "name": "needed",
          "type": "uint256"
        }
      ],
      "name": "HRC20InsufficientAllowance",
      "type": "error"
    },
    {
      "inputs": [
        {
          "internalType": "address",
          "name": "sender",
          "type": "address"
        },
        {
          "internalType": "uint256",
          "name": "balance",
          "type": "uint256"
        },
        {
          "internalType": "uint256",
          "name": "needed",
          "type": "uint256"
        }
      ],
      "name": "HRC20InsufficientBalance",
      "type": "error"
    },
    {
      "inputs": [
        {
          "internalType": "address",
          "name": "approver",
          "type": "address"
        }
      ],
      "name": "HRC20InvalidApprover",
      "type": "error"
    },
    {
      "inputs": [
        {
          "internalType": "address",
          "name": "receiver",
          "type": "address"
        }
      ],
      "name": "HRC20InvalidReceiver",
      "type": "error"
    },
    {
      "inputs": [
        {
          "internalType": "address",
          "name": "sender",
          "type": "address"
        }
      ],
      "name": "HRC20InvalidSender",
      "type": "error"
    },
    {
      "inputs": [
        {
          "internalType": "address",
          "name": "spender",
          "type": "address"
        }
      ],
      "name": "HRC20InvalidSpender",
      "type": "error"
    },
    {
      "inputs": [
        {
          "internalType": "address",
          "name": "account",
          "type": "address"
        },
        {
          "internalType": "uint256",
          "name": "currentNonce",
          "type": "uint256"
        }
      ],
      "name": "InvalidAccountNonce",
      "type": "error"
    },
    {
      "inputs": [],
      "name": "InvalidShortString",
      "type": "error"
    },
    {
      "inputs": [
        {
          "internalType": "address",
          "name": "owner",
          "type": "address"
        }
      ],
      "name": "OwnableInvalidOwner",
      "type": "error"
    },
    {
      "inputs": [
        {
          "internalType": "address",
          "name": "account",
          "type": "address"
        }
      ],
      "name": "OwnableUnauthorizedAccount",
      "type": "error"
    },
    {
      "inputs": [
        {
          "internalType": "string",
          "name": "str",
          "type": "string"
        }
      ],
      "name": "StringTooLong",
      "type": "error"
    },
    {
      "anonymous": false,
      "inputs": [
        {
          "indexed": true,
          "internalType": "address",
          "name": "owner",
          "type": "address"
        },
        {
          "indexed": true,
          "internalType": "address",
          "name": "spender",
          "type": "address"
        },
        {
          "indexed": false,
          "internalType": "uint256",
          "name": "value",
          "type": "uint256"
        }
      ],
      "name": "Approval",
      "type": "event"
    },
    {
      "anonymous": false,
      "inputs": [],
      "name": "EIP712DomainChanged",
      "type": "event"
    },
    {
      "anonymous": false,
      "inputs": [
        {
          "indexed": true,
          "internalType": "address",
          "name": "previousOwner",
          "type": "address"
        },
        {
          "indexed": true,
          "internalType": "address",
          "name": "newOwner",
          "type": "address"
        }
      ],
      "name": "OwnershipTransferred",
      "type": "event"
    },
    {
      "anonymous": false,
      "inputs": [
        {
          "indexed": false,
          "internalType": "address",
          "name": "account",
          "type": "address"
        }
      ],
      "name": "Paused",
      "type": "event"
    },
    {
      "anonymous": false,
      "inputs": [
        {
          "indexed": true,
          "internalType": "address",
          "name": "from",
          "type": "address"
        },
        {
          "indexed": true,
          "internalType": "address",
          "name": "to",
          "type": "address"
        },
        {
          "indexed": false,
          "internalType": "uint256",
          "name": "value",
          "type": "uint256"
        }
      ],
      "name": "Transfer",
      "type": "event"
    },
    {
      "anonymous": false,
      "inputs": [
        {
          "indexed": false,
          "internalType": "address",
          "name": "account",
          "type": "address"
        }
      ],
      "name": "Unpaused",
      "type": "event"
    },
    {
      "inputs": [],
      "name": "DOMAIN_SEPARATOR",
      "outputs": [
        {
          "internalType": "bytes32",
          "name": "",
          "type": "bytes32"
        }
      ],
      "stateMutability": "view",
      "type": "function"
    },
    {
      "inputs": [
        {
          "internalType": "address",
          "name": "owner",
          "type": "address"
        },
        {
          "internalType": "address",
          "name": "spender",
          "type": "address"
        }
      ],
      "name": "allowance",
      "outputs": [
        {
          "internalType": "uint256",
          "name": "",
          "type": "uint256"
        }
      ],
      "stateMutability": "view",
      "type": "function"
    },
    {
      "inputs": [
        {
          "internalType": "address",
          "name": "spender",
          "type": "address"
        },
        {
          "internalType": "uint256",
          "name": "value",
          "type": "uint256"
        }
      ],
      "name": "approve",
      "outputs": [
        {
          "internalType": "bool",
          "name": "",
          "type": "bool"
        }
      ],
      "stateMutability": "nonpayable",
      "type": "function"
    },
    {
      "inputs": [
        {
          "internalType": "address",
          "name": "account",
          "type": "address"
        }
      ],
      "name": "balanceOf",
      "outputs": [
        {
          "internalType": "uint256",
          "name": "",
          "type": "uint256"
        }
      ],
      "stateMutability": "view",
      "type": "function"
    },
    {
      "inputs": [
        {
          "internalType": "uint256",
          "name": "value",
          "type": "uint256"
        }
      ],
      "name": "burn",
      "outputs": [],
      "stateMutability": "nonpayable",
      "type": "function"
    },
    {
      "inputs": [
        {
          "internalType": "address",
          "name": "account",
          "type": "address"
        },
        {
          "internalType": "uint256",
          "name": "value",
          "type": "uint256"
        }
      ],
      "name": "burnFrom",
      "outputs": [],
      "stateMutability": "nonpayable",
      "type": "function"
    },
    {
      "inputs": [],
      "name": "decimals",
      "outputs": [
        {
          "internalType": "uint8",
          "name": "",
          "type": "uint8"
        }
      ],
      "stateMutability": "view",
      "type": "function"
    },
    {
      "inputs": [],
      "name": "eip712Domain",
      "outputs": [
        {
          "internalType": "bytes1",
          "name": "fields",
          "type": "bytes1"
        },
        {
          "internalType": "string",
          "name": "name",
          "type": "string"
        },
        {
          "internalType": "string",
          "name": "version",
          "type": "string"
        },
        {
          "internalType": "uint256",
          "name": "chainId",
          "type": "uint256"
        },
        {
          "internalType": "address",
          "name": "verifyingContract",
          "type": "address"
        },
        {
          "internalType": "bytes32",
          "name": "salt",
          "type": "bytes32"
        },
        {
          "internalType": "uint256[]",
          "name": "extensions",
          "type": "uint256[]"
        }
      ],
      "stateMutability": "view",
      "type": "function"
    },
    {
      "inputs": [
        {
          "internalType": "address",
          "name": "to",
          "type": "address"
        },
        {
          "internalType": "uint256",
          "name": "amount",
          "type": "uint256"
        }
      ],
      "name": "mint",
      "outputs": [],
      "stateMutability": "nonpayable",
      "type": "function"
    },
    {
      "inputs": [],
      "name": "name",
      "outputs": [
        {
          "internalType": "string",
          "name": "",
          "type": "string"
        }
      ],
      "stateMutability": "view",
      "type": "function"
    },
    {
      "inputs": [
        {
          "internalType": "address",
          "name": "owner",
          "type": "address"
        }
      ],
      "name": "nonces",
      "outputs": [
        {
          "internalType": "uint256",
          "name": "",
          "type": "uint256"
        }
      ],
      "stateMutability": "view",
      "type": "function"
    },
    {
      "inputs": [],
      "name": "owner",
      "outputs": [
        {
          "internalType": "address",
          "name": "",
          "type": "address"
        }
      ],
      "stateMutability": "view",
      "type": "function"
    },
    {
      "inputs": [],
      "name": "pause",
      "outputs": [],
      "stateMutability": "nonpayable",
      "type": "function"
    },
    {
      "inputs": [],
      "name": "paused",
      "outputs": [
        {
          "internalType": "bool",
          "name": "",
          "type": "bool"
        }
      ],
      "stateMutability": "view",
      "type": "function"
    },
    {
      "inputs": [
        {
          "internalType": "address",
          "name": "owner",
          "type": "address"
        },
        {
          "internalType": "address",
          "name": "spender",
          "type": "address"
        },
        {
          "internalType": "uint256",
          "name": "value",
          "type": "uint256"
        },
        {
          "internalType": "uint256",
          "name": "deadline",
          "type": "uint256"
        },
        {
          "internalType": "uint8",
          "name": "v",
          "type": "uint8"
        },
        {
          "internalType": "bytes32",
          "name": "r",
          "type": "bytes32"
        },
        {
          "internalType": "bytes32",
          "name": "s",
          "type": "bytes32"
        }
      ],
      "name": "permit",
      "outputs": [],
      "stateMutability": "nonpayable",
      "type": "function"
    },
    {
      "inputs": [],
      "name": "renounceOwnership",
      "outputs": [],
      "stateMutability": "nonpayable",
      "type": "function"
    },
    {
      "inputs": [],
      "name": "symbol",
      "outputs": [
        {
          "internalType": "string",
          "name": "",
          "type": "string"
        }
      ],
      "stateMutability": "view",
      "type": "function"
    },
    {
      "inputs": [],
      "name": "totalSupply",
      "outputs": [
        {
          "internalType": "uint256",
          "name": "",
          "type": "uint256"
        }
      ],
      "stateMutability": "view",
      "type": "function"
    },
    {
      "inputs": [
        {
          "internalType": "address",
          "name": "to",
          "type": "address"
        },
        {
          "internalType": "uint256",
          "name": "value",
          "type": "uint256"
        }
      ],
      "name": "transfer",
      "outputs": [
        {
          "internalType": "bool",
          "name": "",
          "type": "bool"
        }
      ],
      "stateMutability": "nonpayable",
      "type": "function"
    },
    {
      "inputs": [
        {
          "internalType": "address",
          "name": "from",
          "type": "address"
        },
        {
          "internalType": "address",
          "name": "to",
          "type": "address"
        },
        {
          "internalType": "uint256",
          "name": "value",
          "type": "uint256"
        }
      ],
      "name": "transferFrom",
      "outputs": [
        {
          "internalType": "bool",
          "name": "",
          "type": "bool"
        }
      ],
      "stateMutability": "nonpayable",
      "type": "function"
    },
    {
      "inputs": [
        {
          "internalType": "address",
          "name": "newOwner",
          "type": "address"
        }
      ],
      "name": "transferOwnership",
      "outputs": [],
      "stateMutability": "nonpayable",
      "type": "function"
    },
    {
      "inputs": [],
      "name": "unpause",
      "outputs": [],
      "stateMutability": "nonpayable",
      "type": "function"
    }
  ],
  "bytecode": "0x6101606040523480156200001257600080fd5b5060405162001a3d38038062001a3d8339810160408190526200003591620004dd565b808480604051806040016040528060018152602001603160f81b8152508787816003908162000065919062000602565b50600462000074828262000602565b50620000869150839050600662000181565b610120526200009781600762000181565b61014052815160208084019190912060e052815190820120610100524660a0526200012560e05161010051604080517f8b73c3c69bb8fe3d512ecc4cf759cc79239f7b179b0ffacaa9a75d522b39400f60208201529081019290925260608201524660808201523060a082015260009060c00160405160208183030381529060405280519060200120905090565b60805250503060c052506001600160a01b0381166200015f57604051631e4fbdf760e01b8152600060048201526024015b60405180910390fd5b6200016a81620001ba565b506200017781836200020c565b505050506200074a565b6000602083511015620001a15762000199836200024a565b9050620001b4565b81620001ae848262000602565b5060ff90505b92915050565b600980546001600160a01b038381166001600160a01b0319831681179093556040519116919082907f8be0079c531659141344cd1fd0a4f28419497f9722a3daafe3b4186f6b6457e090600090a35050565b6001600160a01b038216620002385760405163551b36c360e01b81526000600482015260240162000156565b62000246600083836200028d565b5050565b600080829050601f8151111562000278578260405163305a27a960e01b8152600401620001569190620006ce565b8051620002858262000703565b179392505050565b6200029a8383836200029f565b505050565b620002a9620002b6565b6200029a838383620002dd565b60055460ff1615620002db5760405163d93c066560e01b815260040160405180910390fd5b565b6001600160a01b0383166200030c57806002600082825462000300919062000728565b90915550620003809050565b6001600160a01b03831660009081526020819052604090205481811015620003615760405163b6b2c52d60e01b81526001600160a01b0385166004820152602481018290526044810183905260640162000156565b6001600160a01b03841660009081526020819052604090209082900390555b6001600160a01b0382166200039e57600280548290039055620003bd565b6001600160a01b03821660009081526020819052604090208054820190555b816001600160a01b0316836001600160a01b03167fddf252ad1be2c89b69c2b068fc378daa952ba7f163c4a11628f55a4df523b3ef836040516200040391815260200190565b60405180910390a3505050565b634e487b7160e01b600052604160045260246000fd5b60005b838110156200044357818101518382015260200162000429565b50506000910152565b600082601f8301126200045e57600080fd5b81516001600160401b03808211156200047b576200047b62000410565b604051601f8301601f19908116603f01168101908282118183101715620004a657620004a662000410565b81604052838152866020858801011115620004c057600080fd5b620004d384602083016020890162000426565b9695505050505050565b60008060008060808587031215620004f457600080fd5b84516001600160401b03808211156200050c57600080fd5b6200051a888389016200044c565b955060208701519150808211156200053157600080fd5b5062000540878288016200044c565b60408701516060880151919550935090506001600160a01b03811681146200056757600080fd5b939692955090935050565b600181811c908216806200058757607f821691505b602082108103620005a857634e487b7160e01b600052602260045260246000fd5b50919050565b601f8211156200029a576000816000526020600020601f850160051c81016020861015620005d95750805b601f850160051c820191505b81811015620005fa57828155600101620005e5565b505050505050565b81516001600160401b038111156200061e576200061e62000410565b62000636816200062f845462000572565b84620005ae565b602080601f8311600181146200066e5760008415620006555750858301515b600019600386901b1c1916600185901b178555620005fa565b600085815260208120601f198616915b828110156200069f578886015182559484019460019091019084016200067e565b5085821015620006be5787850151600019600388901b60f8161c191681555b5050505050600190811b01905550565b6020815260008251806020840152620006ef81604085016020870162000426565b601f01601f19169190910160400192915050565b80516020808301519190811015620005a85760001960209190910360031b1b16919050565b80820180821115620001b457634e487b7160e01b600052601160045260246000fd5b60805160a05160c05160e051610100516101205161014051611298620007a56000396000610a1d015260006109f00152600061081e015260006107f6015260006107510152600061077b015260006107a501526112986000f3fe608060405234801561001057600080fd5b50600436106101425760003560e01c8063715018a6116100b85780638da5cb5b1161007c5780638da5cb5b1461027957806395d89b4114610294578063a9059cbb1461029c578063d505accf146102af578063dd62ed3e146102c2578063f2fde38b146102fb57600080fd5b8063715018a61461022857806379cc6790146102305780637ecebe00146102435780638456cb591461025657806384b0196e1461025e57600080fd5b80633644e5151161010a5780633644e515146101bc5780633f4ba83a146101c457806340c10f19146101ce57806342966c68146101e15780635c975abb146101f457806370a08231146101ff57600080fd5b806306fdde0314610147578063095ea7b31461016557806318160ddd1461018857806323b872dd1461019a578063313ce567146101ad575b600080fd5b61014f61030e565b60405161015c9190610fe2565b60405180910390f35b610178610173366004611018565b6103a0565b604051901515815260200161015c565b6002545b60405190815260200161015c565b6101786101a8366004611042565b6103ba565b6040516012815260200161015c565b61018c6103de565b6101cc6103ed565b005b6101cc6101dc366004611018565b6103ff565b6101cc6101ef36600461107e565b610415565b60055460ff16610178565b61018c61020d366004611097565b6001600160a01b031660009081526020819052604090205490565b6101cc610422565b6101cc61023e366004611018565b610434565b61018c610251366004611097565b610449565b6101cc610467565b610266610477565b60405161015c97969594939291906110b2565b6009546040516001600160a01b03909116815260200161015c565b61014f6104bd565b6101786102aa366004611018565b6104cc565b6101cc6102bd36600461114b565b6104da565b61018c6102d03660046111be565b6001600160a01b03918216600090815260016020908152604080832093909416825291909152205490565b6101cc610309366004611097565b610619565b60606003805461031d906111f1565b80601f0160208091040260200160405190810160405280929190818152602001828054610349906111f1565b80156103965780601f1061036b57610100808354040283529160200191610396565b820191906000526020600020905b81548152906001019060200180831161037957829003601f168201915b5050505050905090565b6000336103ae818585610654565b60019150505b92915050565b6000336103c8858285610666565b6103d38585856106e5565b506001949350505050565b60006103e8610744565b905090565b6103f561086f565b6103fd61089c565b565b61040761086f565b61041182826108ee565b5050565b61041f3382610924565b50565b61042a61086f565b6103fd600061095a565b61043f823383610666565b6104118282610924565b6001600160a01b0381166000908152600860205260408120546103b4565b61046f61086f565b6103fd6109ac565b60006060806000806000606061048b6109e9565b610493610a16565b60408051600080825260208201909252600f60f81b9b939a50919850469750309650945092509050565b60606004805461031d906111f1565b6000336103ae8185856106e5565b834211156105035760405163313c898160e11b8152600481018590526024015b60405180910390fd5b60007f6e71edae12b1b97f4d1f60370fef10105fa2faae0126114a169c64845d6126c98888886105508c6001600160a01b0316600090815260086020526040902080546001810190915590565b6040805160208101969096526001600160a01b0394851690860152929091166060840152608083015260a082015260c0810186905260e00160405160208183030381529060405280519060200120905060006105ab82610a43565b905060006105bb82878787610a70565b9050896001600160a01b0316816001600160a01b031614610602576040516325c0072360e11b81526001600160a01b0380831660048301528b1660248201526044016104fa565b61060d8a8a8a610654565b50505050505050505050565b61062161086f565b6001600160a01b03811661064b57604051631e4fbdf760e01b8152600060048201526024016104fa565b61041f8161095a565b6106618383836001610a9e565b505050565b6001600160a01b038381166000908152600160209081526040808320938616835292905220546000198110156106df57818110156106d0576040516378bbd42f60e01b81526001600160a01b038416600482015260248101829052604481018390526064016104fa565b6106df84848484036000610a9e565b50505050565b6001600160a01b03831661070f57604051630b45b23760e41b8152600060048201526024016104fa565b6001600160a01b0382166107395760405163551b36c360e01b8152600060048201526024016104fa565b610661838383610b73565b6000306001600160a01b037f00000000000000000000000000000000000000000000000000000000000000001614801561079d57507f000000000000000000000000000000000000000000000000000000000000000046145b156107c757507f000000000000000000000000000000000000000000000000000000000000000090565b6103e8604080517f8b73c3c69bb8fe3d512ecc4cf759cc79239f7b179b0ffacaa9a75d522b39400f60208201527f0000000000000000000000000000000000000000000000000000000000000000918101919091527f000000000000000000000000000000000000000000000000000000000000000060608201524660808201523060a082015260009060c00160405160208183030381529060405280519060200120905090565b6009546001600160a01b031633146103fd5760405163118cdaa760e01b81523360048201526024016104fa565b6108a4610b7e565b6005805460ff191690557f5db9ee0a495bf2e6ff9c91a7834c1ba4fdd244a5e8aa4e537bd38aeae4b073aa335b6040516001600160a01b03909116815260200160405180910390a1565b6001600160a01b0382166109185760405163551b36c360e01b8152600060048201526024016104fa565b61041160008383610b73565b6001600160a01b03821661094e57604051630b45b23760e41b8152600060048201526024016104fa565b61041182600083610b73565b600980546001600160a01b038381166001600160a01b0319831681179093556040519116919082907f8be0079c531659141344cd1fd0a4f28419497f9722a3daafe3b4186f6b6457e090600090a35050565b6109b4610ba1565b6005805460ff191660011790557f62e78cea01bee320cd4e420270b5ea74000d11b0c9f74754ebdbfc544b05a2586108d13390565b60606103e87f00000000000000000000000000000000000000000000000000000000000000006006610bc5565b60606103e87f00000000000000000000000000000000000000000000000000000000000000006007610bc5565b60006103b4610a50610744565b8360405161190160f01b8152600281019290925260228201526042902090565b600080600080610a8288888888610c70565b925092509250610a928282610d3f565b50909695505050505050565b6001600160a01b038416610ac85760405163478efcb160e01b8152600060048201526024016104fa565b6001600160a01b038316610af2576040516325dc6edb60e11b8152600060048201526024016104fa565b6001600160a01b03808516600090815260016020908152604080832093871683529290522082905580156106df57826001600160a01b0316846001600160a01b03167f8c5be1e5ebec7d5bd14f71427d1e84f3dd0314c0f7b2291e5b200ac8c7c3b92584604051610b6591815260200190565b60405180910390a350505050565b610661838383610df8565b60055460ff166103fd57604051638dfc202b60e01b815260040160405180910390fd5b60055460ff16156103fd5760405163d93c066560e01b815260040160405180910390fd5b606060ff8314610bdf57610bd883610e0b565b90506103b4565b818054610beb906111f1565b80601f0160208091040260200160405190810160405280929190818152602001828054610c17906111f1565b8015610c645780601f10610c3957610100808354040283529160200191610c64565b820191906000526020600020905b815481529060010190602001808311610c4757829003601f168201915b505050505090506103b4565b600080807f7fffffffffffffffffffffffffffffff5d576e7357a4501ddfe92f46681b20a0841115610cab5750600091506003905082610d35565b604080516000808252602082018084528a905260ff891692820192909252606081018790526080810186905260019060a0016020604051602081039080840390855afa158015610cff573d6000803e3d6000fd5b5050604051601f1901519150506001600160a01b038116610d2b57506000925060019150829050610d35565b9250600091508190505b9450945094915050565b6000826003811115610d5357610d5361122b565b03610d5c575050565b6001826003811115610d7057610d7061122b565b03610d8e5760405163f645eedf60e01b815260040160405180910390fd5b6002826003811115610da257610da261122b565b03610dc35760405163fce698f760e01b8152600481018290526024016104fa565b6003826003811115610dd757610dd761122b565b03610411576040516335e2f38360e21b8152600481018290526024016104fa565b610e00610ba1565b610661838383610e4a565b60606000610e1883610f74565b604080516020808252818301909252919250600091906020820181803683375050509182525060208101929092525090565b6001600160a01b038316610e75578060026000828254610e6a9190611241565b90915550610ee79050565b6001600160a01b03831660009081526020819052604090205481811015610ec85760405163b6b2c52d60e01b81526001600160a01b038516600482015260248101829052604481018390526064016104fa565b6001600160a01b03841660009081526020819052604090209082900390555b6001600160a01b038216610f0357600280548290039055610f22565b6001600160a01b03821660009081526020819052604090208054820190555b816001600160a01b0316836001600160a01b03167fddf252ad1be2c89b69c2b068fc378daa952ba7f163c4a11628f55a4df523b3ef83604051610f6791815260200190565b60405180910390a3505050565b600060ff8216601f8111156103b457604051632cd44ac360e21b815260040160405180910390fd5b6000815180845260005b81811015610fc257602081850181015186830182015201610fa6565b506000602082860101526020601f19601f83011685010191505092915050565b602081526000610ff56020830184610f9c565b9392505050565b80356001600160a01b038116811461101357600080fd5b919050565b6000806040838503121561102b57600080fd5b61103483610ffc565b946020939093013593505050565b60008060006060848603121561105757600080fd5b61106084610ffc565b925061106e60208501610ffc565b9150604084013590509250925092565b60006020828403121561109057600080fd5b5035919050565b6000602082840312156110a957600080fd5b610ff582610ffc565b60ff60f81b881681526000602060e060208401526110d360e084018a610f9c565b83810360408501526110e5818a610f9c565b606085018990526001600160a01b038816608086015260a0850187905284810360c08601528551808252602080880193509091019060005b818110156111395783518352928401929184019160010161111d565b50909c9b505050505050505050505050565b600080600080600080600060e0888a03121561116657600080fd5b61116f88610ffc565b965061117d60208901610ffc565b95506040880135945060608801359350608088013560ff811681146111a157600080fd5b9699959850939692959460a0840135945060c09093013592915050565b600080604083850312156111d157600080fd5b6111da83610ffc565b91506111e860208401610ffc565b90509250929050565b600181811c9082168061120557607f821691505b60208210810361122557634e487b7160e01b600052602260045260246000fd5b50919050565b634e487b7160e01b600052602160045260246000fd5b808201808211156103b457634e487b7160e01b600052601160045260246000fdfea2646970667358221220bb8864e830dd68f44a3e017cca8035ad164b4070610843d67d6b345b3dc073a364736f6c63430008180033",
  "linkReferences": {},
  "deployedLinkReferences": {}
}