{
  "_format": "hh-sol-artifact-1",
  "contractName": "MyNFT",
  "sourceName": "contracts/nft/MyNFT.sol",
  "abi": [
    {
      "inputs": [
        {
          "internalType": "string",
          "name": "name",
          "type": "string"
        },
        {
          "internalType": "string",
          "name": "symbol",
          "type": "string"
        },
        {
          "internalType": "address",
          "name": "initialOwner",
          "type": "address"
        }
      ],
      "stateMutability": "nonpayable",
      "type": "constructor"
    },
    {
      "inputs": [
        {
          "internalType": "address",
          "name": "sender",
          "type": "address"
        },
        {
          "internalType": "uint256",
          "name": "tokenId",
          "type": "uint256"
        },
        {
          "internalType": "address",
          "name": "owner",
          "type": "address"
        }
      ],
      "name": "ERC721IncorrectOwner",
      "type": "error"
    },
    {
      "inputs": [
        {
          "internalType": "address",
          "name": "operator",
          "type": "address"
        },
        {
          "internalType": "uint256",
          "name": "tokenId",
          "type": "uint256"
        }
      ],
      "name": "ERC721InsufficientApproval",
      "type": "error"
    },
    {
      "inputs": [
        {
          "internalType": "address",
          "name": "approver",
          "type": "address"
        }
      ],
      "name": "ERC721InvalidApprover",
      "type": "error"
    },
    {
      "inputs": [
        {
          "internalType": "address",
          "name": "operator",
          "type": "address"
        }
      ],
      "name": "ERC721InvalidOperator",
      "type": "error"
    },
    {
      "inputs": [
        {
          "internalType": "address",
          "name": "owner",
          "type": "address"
        }
      ],
      "name": "ERC721InvalidOwner",
      "type": "error"
    },
    {
      "inputs": [
        {
          "internalType": "address",
          "name": "receiver",
          "type": "address"
        }
      ],
      "name": "ERC721InvalidReceiver",
      "type": "error"
    },
    {
      "inputs": [
        {
          "internalType": "address",
          "name": "sender",
          "type": "address"
        }
      ],
      "name": "ERC721InvalidSender",
      "type": "error"
    },
    {
      "inputs": [
        {
          "internalType": "uint256",
          "name": "tokenId",
          "type": "uint256"
        }
      ],
      "name": "ERC721NonexistentToken",
      "type": "error"
    },
    {
      "inputs": [],
      "name": "EnforcedPause",
      "type": "error"
    },
    {
      "inputs": [],
      "name": "ExpectedPause",
      "type": "error"
    },
    {
      "inputs": [
        {
          "internalType": "address",
          "name": "owner",
          "type": "address"
        }
      ],
      "name": "OwnableInvalidOwner",
      "type": "error"
    },
    {
      "inputs": [
        {
          "internalType": "address",
          "name": "account",
          "type": "address"
        }
      ],
      "name": "OwnableUnauthorizedAccount",
      "type": "error"
    },
    {
      "anonymous": false,
      "inputs": [
        {
          "indexed": true,
          "internalType": "address",
          "name": "owner",
          "type": "address"
        },
        {
          "indexed": true,
          "internalType": "address",
          "name": "approved",
          "type": "address"
        },
        {
          "indexed": true,
          "internalType": "uint256",
          "name": "tokenId",
          "type": "uint256"
        }
      ],
      "name": "Approval",
      "type": "event"
    },
    {
      "anonymous": false,
      "inputs": [
        {
          "indexed": true,
          "internalType": "address",
          "name": "owner",
          "type": "address"
        },
        {
          "indexed": true,
          "internalType": "address",
          "name": "operator",
          "type": "address"
        },
        {
          "indexed": false,
          "internalType": "bool",
          "name": "approved",
          "type": "bool"
        }
      ],
      "name": "ApprovalForAll",
      "type": "event"
    },
    {
      "anonymous": false,
      "inputs": [
        {
          "indexed": true,
          "internalType": "address",
          "name": "previousOwner",
          "type": "address"
        },
        {
          "indexed": true,
          "internalType": "address",
          "name": "newOwner",
          "type": "address"
        }
      ],
      "name": "OwnershipTransferred",
      "type": "event"
    },
    {
      "anonymous": false,
      "inputs": [
        {
          "indexed": false,
          "internalType": "address",
          "name": "account",
          "type": "address"
        }
      ],
      "name": "Paused",
      "type": "event"
    },
    {
      "anonymous": false,
      "inputs": [
        {
          "indexed": true,
          "internalType": "address",
          "name": "from",
          "type": "address"
        },
        {
          "indexed": true,
          "internalType": "address",
          "name": "to",
          "type": "address"
        },
        {
          "indexed": true,
          "internalType": "uint256",
          "name": "tokenId",
          "type": "uint256"
        }
      ],
      "name": "Transfer",
      "type": "event"
    },
    {
      "anonymous": false,
      "inputs": [
        {
          "indexed": false,
          "internalType": "address",
          "name": "account",
          "type": "address"
        }
      ],
      "name": "Unpaused",
      "type": "event"
    },
    {
      "inputs": [
        {
          "internalType": "address",
          "name": "to",
          "type": "address"
        },
        {
          "internalType": "uint256",
          "name": "tokenId",
          "type": "uint256"
        }
      ],
      "name": "approve",
      "outputs": [],
      "stateMutability": "nonpayable",
      "type": "function"
    },
    {
      "inputs": [
        {
          "internalType": "address",
          "name": "owner",
          "type": "address"
        }
      ],
      "name": "balanceOf",
      "outputs": [
        {
          "internalType": "uint256",
          "name": "",
          "type": "uint256"
        }
      ],
      "stateMutability": "view",
      "type": "function"
    },
    {
      "inputs": [
        {
          "internalType": "uint256",
          "name": "tokenId",
          "type": "uint256"
        }
      ],
      "name": "burn",
      "outputs": [],
      "stateMutability": "nonpayable",
      "type": "function"
    },
    {
      "inputs": [
        {
          "internalType": "uint256",
          "name": "tokenId",
          "type": "uint256"
        }
      ],
      "name": "getApproved",
      "outputs": [
        {
          "internalType": "address",
          "name": "",
          "type": "address"
        }
      ],
      "stateMutability": "view",
      "type": "function"
    },
    {
      "inputs": [
        {
          "internalType": "address",
          "name": "owner",
          "type": "address"
        },
        {
          "internalType": "address",
          "name": "operator",
          "type": "address"
        }
      ],
      "name": "isApprovedForAll",
      "outputs": [
        {
          "internalType": "bool",
          "name": "",
          "type": "bool"
        }
      ],
      "stateMutability": "view",
      "type": "function"
    },
    {
      "inputs": [],
      "name": "name",
      "outputs": [
        {
          "internalType": "string",
          "name": "",
          "type": "string"
        }
      ],
      "stateMutability": "view",
      "type": "function"
    },
    {
      "inputs": [],
      "name": "owner",
      "outputs": [
        {
          "internalType": "address",
          "name": "",
          "type": "address"
        }
      ],
      "stateMutability": "view",
      "type": "function"
    },
    {
      "inputs": [
        {
          "internalType": "uint256",
          "name": "tokenId",
          "type": "uint256"
        }
      ],
      "name": "ownerOf",
      "outputs": [
        {
          "internalType": "address",
          "name": "",
          "type": "address"
        }
      ],
      "stateMutability": "view",
      "type": "function"
    },
    {
      "inputs": [],
      "name": "pause",
      "outputs": [],
      "stateMutability": "nonpayable",
      "type": "function"
    },
    {
      "inputs": [],
      "name": "paused",
      "outputs": [
        {
          "internalType": "bool",
          "name": "",
          "type": "bool"
        }
      ],
      "stateMutability": "view",
      "type": "function"
    },
    {
      "inputs": [],
      "name": "renounceOwnership",
      "outputs": [],
      "stateMutability": "nonpayable",
      "type": "function"
    },
    {
      "inputs": [
        {
          "internalType": "address",
          "name": "to",
          "type": "address"
        },
        {
          "internalType": "uint256",
          "name": "tokenId",
          "type": "uint256"
        }
      ],
      "name": "safeMint",
      "outputs": [],
      "stateMutability": "nonpayable",
      "type": "function"
    },
    {
      "inputs": [
        {
          "internalType": "address",
          "name": "from",
          "type": "address"
        },
        {
          "internalType": "address",
          "name": "to",
          "type": "address"
        },
        {
          "internalType": "uint256",
          "name": "tokenId",
          "type": "uint256"
        }
      ],
      "name": "safeTransferFrom",
      "outputs": [],
      "stateMutability": "nonpayable",
      "type": "function"
    },
    {
      "inputs": [
        {
          "internalType": "address",
          "name": "from",
          "type": "address"
        },
        {
          "internalType": "address",
          "name": "to",
          "type": "address"
        },
        {
          "internalType": "uint256",
          "name": "tokenId",
          "type": "uint256"
        },
        {
          "internalType": "bytes",
          "name": "data",
          "type": "bytes"
        }
      ],
      "name": "safeTransferFrom",
      "outputs": [],
      "stateMutability": "nonpayable",
      "type": "function"
    },
    {
      "inputs": [
        {
          "internalType": "address",
          "name": "operator",
          "type": "address"
        },
        {
          "internalType": "bool",
          "name": "approved",
          "type": "bool"
        }
      ],
      "name": "setApprovalForAll",
      "outputs": [],
      "stateMutability": "nonpayable",
      "type": "function"
    },
    {
      "inputs": [
        {
          "internalType": "bytes4",
          "name": "interfaceId",
          "type": "bytes4"
        }
      ],
      "name": "supportsInterface",
      "outputs": [
        {
          "internalType": "bool",
          "name": "",
          "type": "bool"
        }
      ],
      "stateMutability": "view",
      "type": "function"
    },
    {
      "inputs": [],
      "name": "symbol",
      "outputs": [
        {
          "internalType": "string",
          "name": "",
          "type": "string"
        }
      ],
      "stateMutability": "view",
      "type": "function"
    },
    {
      "inputs": [
        {
          "internalType": "uint256",
          "name": "tokenId",
          "type": "uint256"
        }
      ],
      "name": "tokenURI",
      "outputs": [
        {
          "internalType": "string",
          "name": "",
          "type": "string"
        }
      ],
      "stateMutability": "view",
      "type": "function"
    },
    {
      "inputs": [
        {
          "internalType": "address",
          "name": "from",
          "type": "address"
        },
        {
          "internalType": "address",
          "name": "to",
          "type": "address"
        },
        {
          "internalType": "uint256",
          "name": "tokenId",
          "type": "uint256"
        }
      ],
      "name": "transferFrom",
      "outputs": [],
      "stateMutability": "nonpayable",
      "type": "function"
    },
    {
      "inputs": [
        {
          "internalType": "address",
          "name": "newOwner",
          "type": "address"
        }
      ],
      "name": "transferOwnership",
      "outputs": [],
      "stateMutability": "nonpayable",
      "type": "function"
    },
    {
      "inputs": [],
      "name": "unpause",
      "outputs": [],
      "stateMutability": "nonpayable",
      "type": "function"
    }
  ],
  "bytecode": "0x60806040523480156200001157600080fd5b506040516200154c3803806200154c83398101604081905262000034916200012f565b8060405180604001604052806005815260200164135e53919560da1b815250604051806040016040528060048152602001631353919560e21b815250816000908162000081919062000208565b50600162000090828262000208565b5050506001600160a01b038116620000c257604051631e4fbdf760e01b81526000600482015260240160405180910390fd5b620000cd81620000d5565b5050620002d4565b600680546001600160a01b03838116610100818102610100600160a81b031985161790945560405193909204169182907f8be0079c531659141344cd1fd0a4f28419497f9722a3daafe3b4186f6b6457e090600090a35050565b6000602082840312156200014257600080fd5b81516001600160a01b03811681146200015a57600080fd5b9392505050565b634e487b7160e01b600052604160045260246000fd5b600181811c908216806200018c57607f821691505b602082108103620001ad57634e487b7160e01b600052602260045260246000fd5b50919050565b601f82111562000203576000816000526020600020601f850160051c81016020861015620001de5750805b601f850160051c820191505b81811015620001ff57828155600101620001ea565b5050505b505050565b81516001600160401b0381111562000224576200022462000161565b6200023c8162000235845462000177565b84620001b3565b602080601f8311600181146200027457600084156200025b5750858301515b600019600386901b1c1916600185901b178555620001ff565b600085815260208120601f198616915b82811015620002a55788860151825594840194600190910190840162000284565b5085821015620002c45787850151600019600388901b60f8161c191681555b5050505050600190811b01905550565b61126880620002e46000396000f3fe608060405234801561001057600080fd5b50600436106101375760003560e01c806370a08231116100b8578063a14481941161007c578063a144819414610267578063a22cb4651461027a578063b88d4fde1461028d578063c87b56dd146102a0578063e985e9c5146102b3578063f2fde38b146102c657600080fd5b806370a0823114610218578063715018a6146102395780638456cb59146102415780638da5cb5b1461024957806395d89b411461025f57600080fd5b80633f4ba83a116100ff5780633f4ba83a146101cc57806342842e0e146101d457806342966c68146101e75780635c975abb146101fa5780636352211e1461020557600080fd5b806301ffc9a71461013c57806306fdde0314610164578063081812fc14610179578063095ea7b3146101a457806323b872dd146101b9575b600080fd5b61014f61014a366004610ed8565b6102d9565b60405190151581526020015b60405180910390f35b61016c61032b565b60405161015b9190610f45565b61018c610187366004610f58565b6103bd565b6040516001600160a01b03909116815260200161015b565b6101b76101b2366004610f8d565b6103e6565b005b6101b76101c7366004610fb7565b6103f5565b6101b7610485565b6101b76101e2366004610fb7565b610497565b6101b76101f5366004610f58565b6104b7565b60065460ff1661014f565b61018c610213366004610f58565b6104c3565b61022b610226366004610ff3565b6104ce565b60405190815260200161015b565b6101b7610516565b6101b7610528565b60065461010090046001600160a01b031661018c565b61016c610538565b6101b7610275366004610f8d565b610547565b6101b761028836600461100e565b610559565b6101b761029b366004611060565b610564565b61016c6102ae366004610f58565b61057c565b61014f6102c136600461113c565b6105f1565b6101b76102d4366004610ff3565b61061f565b60006001600160e01b031982166380ac58cd60e01b148061030a57506001600160e01b03198216635b5e139f60e01b145b8061032557506301ffc9a760e01b6001600160e01b03198316145b92915050565b60606000805461033a9061116f565b80601f01602080910402602001604051908101604052809291908181526020018280546103669061116f565b80156103b35780601f10610388576101008083540402835291602001916103b3565b820191906000526020600020905b81548152906001019060200180831161039657829003601f168201915b5050505050905090565b60006103c88261065d565b506000828152600460205260409020546001600160a01b0316610325565b6103f1828233610696565b5050565b6001600160a01b03821661042457604051633250574960e11b8152600060048201526024015b60405180910390fd5b60006104318383336106a3565b9050836001600160a01b0316816001600160a01b03161461047f576040516364283d7b60e01b81526001600160a01b038086166004830152602482018490528216604482015260640161041b565b50505050565b61048d6106b8565b6104956106eb565b565b6104b283838360405180602001604052806000815250610564565b505050565b6103f1600082336106a3565b60006103258261065d565b60006001600160a01b0382166104fa576040516322718ad960e21b81526000600482015260240161041b565b506001600160a01b031660009081526003602052604090205490565b61051e6106b8565b610495600061073d565b6105306106b8565b610495610797565b60606001805461033a9061116f565b61054f6106b8565b6103f182826107d4565b6103f13383836107ee565b61056f8484846103f5565b61047f338585858561088d565b60606105878261065d565b50600061059f60408051602081019091526000815290565b905060008151116105bf57604051806020016040528060008152506105ea565b806105c9846109b8565b6040516020016105da9291906111a9565b6040516020818303038152906040525b9392505050565b6001600160a01b03918216600090815260056020908152604080832093909416825291909152205460ff1690565b6106276106b8565b6001600160a01b03811661065157604051631e4fbdf760e01b81526000600482015260240161041b565b61065a8161073d565b50565b6000818152600260205260408120546001600160a01b03168061032557604051637e27328960e01b81526004810184905260240161041b565b6104b28383836001610a4b565b60006106b0848484610b51565b949350505050565b6006546001600160a01b036101009091041633146104955760405163118cdaa760e01b815233600482015260240161041b565b6106f3610b66565b6006805460ff191690557f5db9ee0a495bf2e6ff9c91a7834c1ba4fdd244a5e8aa4e537bd38aeae4b073aa335b6040516001600160a01b03909116815260200160405180910390a1565b600680546001600160a01b03838116610100818102610100600160a81b031985161790945560405193909204169182907f8be0079c531659141344cd1fd0a4f28419497f9722a3daafe3b4186f6b6457e090600090a35050565b61079f610b89565b6006805460ff191660011790557f62e78cea01bee320cd4e420270b5ea74000d11b0c9f74754ebdbfc544b05a2586107203390565b6103f1828260405180602001604052806000815250610bad565b6001600160a01b03821661082057604051630b61174360e31b81526001600160a01b038316600482015260240161041b565b6001600160a01b03838116600081815260056020908152604080832094871680845294825291829020805460ff191686151590811790915591519182527f17307eab39ab6107e8899845ad3d59bd9653f200f220920489ca2b5937696c31910160405180910390a3505050565b6001600160a01b0383163b156109b157604051630a85bd0160e11b81526001600160a01b0384169063150b7a02906108cf9088908890879087906004016111d8565b6020604051808303816000875af192505050801561090a575060408051601f3d908101601f1916820190925261090791810190611215565b60015b610973573d808015610938576040519150601f19603f3d011682016040523d82523d6000602084013e61093d565b606091505b50805160000361096b57604051633250574960e11b81526001600160a01b038516600482015260240161041b565b805160208201fd5b6001600160e01b03198116630a85bd0160e11b146109af57604051633250574960e11b81526001600160a01b038516600482015260240161041b565b505b5050505050565b606060006109c583610bc5565b600101905060008167ffffffffffffffff8111156109e5576109e561104a565b6040519080825280601f01601f191660200182016040528015610a0f576020820181803683370190505b5090508181016020015b600019016f181899199a1a9b1b9c1cb0b131b232b360811b600a86061a8153600a8504945084610a1957509392505050565b8080610a5f57506001600160a01b03821615155b15610b21576000610a6f8461065d565b90506001600160a01b03831615801590610a9b5750826001600160a01b0316816001600160a01b031614155b8015610aae5750610aac81846105f1565b155b15610ad75760405163a9fbf51f60e01b81526001600160a01b038416600482015260240161041b565b8115610b1f5783856001600160a01b0316826001600160a01b03167f8c5be1e5ebec7d5bd14f71427d1e84f3dd0314c0f7b2291e5b200ac8c7c3b92560405160405180910390a45b505b5050600090815260046020526040902080546001600160a01b0319166001600160a01b0392909216919091179055565b6000610b5b610b89565b6106b0848484610c9d565b60065460ff1661049557604051638dfc202b60e01b815260040160405180910390fd5b60065460ff16156104955760405163d93c066560e01b815260040160405180910390fd5b610bb78383610d96565b6104b233600085858561088d565b60008072184f03e93ff9f4daa797ed6e38ed64bf6a1f0160401b8310610c045772184f03e93ff9f4daa797ed6e38ed64bf6a1f0160401b830492506040015b6d04ee2d6d415b85acef81000000008310610c30576d04ee2d6d415b85acef8100000000830492506020015b662386f26fc100008310610c4e57662386f26fc10000830492506010015b6305f5e1008310610c66576305f5e100830492506008015b6127108310610c7a57612710830492506004015b60648310610c8c576064830492506002015b600a83106103255760010192915050565b6000828152600260205260408120546001600160a01b0390811690831615610cca57610cca818486610dfb565b6001600160a01b03811615610d0857610ce7600085600080610a4b565b6001600160a01b038116600090815260036020526040902080546000190190555b6001600160a01b03851615610d37576001600160a01b0385166000908152600360205260409020805460010190555b60008481526002602052604080822080546001600160a01b0319166001600160a01b0389811691821790925591518793918516917fddf252ad1be2c89b69c2b068fc378daa952ba7f163c4a11628f55a4df523b3ef91a4949350505050565b6001600160a01b038216610dc057604051633250574960e11b81526000600482015260240161041b565b6000610dce838360006106a3565b90506001600160a01b038116156104b2576040516339e3563760e11b81526000600482015260240161041b565b610e06838383610e5f565b6104b2576001600160a01b038316610e3457604051637e27328960e01b81526004810182905260240161041b565b60405163177e802f60e01b81526001600160a01b03831660048201526024810182905260440161041b565b60006001600160a01b038316158015906106b05750826001600160a01b0316846001600160a01b03161480610e995750610e9984846105f1565b806106b05750506000908152600460205260409020546001600160a01b03908116911614919050565b6001600160e01b03198116811461065a57600080fd5b600060208284031215610eea57600080fd5b81356105ea81610ec2565b60005b83811015610f10578181015183820152602001610ef8565b50506000910152565b60008151808452610f31816020860160208601610ef5565b601f01601f19169290920160200192915050565b6020815260006105ea6020830184610f19565b600060208284031215610f6a57600080fd5b5035919050565b80356001600160a01b0381168114610f8857600080fd5b919050565b60008060408385031215610fa057600080fd5b610fa983610f71565b946020939093013593505050565b600080600060608486031215610fcc57600080fd5b610fd584610f71565b9250610fe360208501610f71565b9150604084013590509250925092565b60006020828403121561100557600080fd5b6105ea82610f71565b6000806040838503121561102157600080fd5b61102a83610f71565b91506020830135801515811461103f57600080fd5b809150509250929050565b634e487b7160e01b600052604160045260246000fd5b6000806000806080858703121561107657600080fd5b61107f85610f71565b935061108d60208601610f71565b925060408501359150606085013567ffffffffffffffff808211156110b157600080fd5b818701915087601f8301126110c557600080fd5b8135818111156110d7576110d761104a565b604051601f8201601f19908116603f011681019083821181831017156110ff576110ff61104a565b816040528281528a602084870101111561111857600080fd5b82602086016020830137600060208483010152809550505050505092959194509250565b6000806040838503121561114f57600080fd5b61115883610f71565b915061116660208401610f71565b90509250929050565b600181811c9082168061118357607f821691505b6020821081036111a357634e487b7160e01b600052602260045260246000fd5b50919050565b600083516111bb818460208801610ef5565b8351908301906111cf818360208801610ef5565b01949350505050565b6001600160a01b038581168252841660208201526040810183905260806060820181905260009061120b90830184610f19565b9695505050505050565b60006020828403121561122757600080fd5b81516105ea81610ec256fea2646970667358221220a9a9c5225d84307c81e34e1a5d44a71b3ea507b11f883eb9968e76571f08874964736f6c63430008180033",
  "linkReferences": {},
  "deployedLinkReferences": {}
}