{
  "_format": "hh-sol-artifact-1",
  "contractName": "TestToken",
  "sourceName": "src/contracts/test/TestToken.sol",
  "abi": [
    {
      "inputs": [
        {
          "internalType": "string",
          "name": "name",
          "type": "string"
        },
        {
          "internalType": "string",
          "name": "symbol",
          "type": "string"
        },
        {
          "internalType": "uint256",
          "name": "initialSupply",
          "type": "uint256"
        },
        {
          "internalType": "address",
          "name": "owner",
          "type": "address"
        }
      ],
      "stateMutability": "nonpayable",
      "type": "constructor"
    },
    {
      "inputs": [],
      "name": "ECDSAInvalidSignature",
      "type": "error"
    },
    {
      "inputs": [
        {
          "internalType": "uint256",
          "name": "length",
          "type": "uint256"
        }
      ],
      "name": "ECDSAInvalidSignatureLength",
      "type": "error"
    },
    {
      "inputs": [
        {
          "internalType": "bytes32",
          "name": "s",
          "type": "bytes32"
        }
      ],
      "name": "ECDSAInvalidSignatureS",
      "type": "error"
    },
    {
      "inputs": [
        {
          "internalType": "uint256",
          "name": "deadline",
          "type": "uint256"
        }
      ],
      "name": "ERC2612ExpiredSignature",
      "type": "error"
    },
    {
      "inputs": [
        {
          "internalType": "address",
          "name": "signer",
          "type": "address"
        },
        {
          "internalType": "address",
          "name": "owner",
          "type": "address"
        }
      ],
      "name": "ERC2612InvalidSigner",
      "type": "error"
    },
    {
      "inputs": [],
      "name": "EnforcedPause",
      "type": "error"
    },
    {
      "inputs": [],
      "name": "ExpectedPause",
      "type": "error"
    },
    {
      "inputs": [
        {
          "internalType": "address",
          "name": "spender",
          "type": "address"
        },
        {
          "internalType": "uint256",
          "name": "allowance",
          "type": "uint256"
        },
        {
          "internalType": "uint256",
          "name": "needed",
          "type": "uint256"
        }
      ],
      "name": "HRC20InsufficientAllowance",
      "type": "error"
    },
    {
      "inputs": [
        {
          "internalType": "address",
          "name": "sender",
          "type": "address"
        },
        {
          "internalType": "uint256",
          "name": "balance",
          "type": "uint256"
        },
        {
          "internalType": "uint256",
          "name": "needed",
          "type": "uint256"
        }
      ],
      "name": "HRC20InsufficientBalance",
      "type": "error"
    },
    {
      "inputs": [
        {
          "internalType": "address",
          "name": "approver",
          "type": "address"
        }
      ],
      "name": "HRC20InvalidApprover",
      "type": "error"
    },
    {
      "inputs": [
        {
          "internalType": "address",
          "name": "receiver",
          "type": "address"
        }
      ],
      "name": "HRC20InvalidReceiver",
      "type": "error"
    },
    {
      "inputs": [
        {
          "internalType": "address",
          "name": "sender",
          "type": "address"
        }
      ],
      "name": "HRC20InvalidSender",
      "type": "error"
    },
    {
      "inputs": [
        {
          "internalType": "address",
          "name": "spender",
          "type": "address"
        }
      ],
      "name": "HRC20InvalidSpender",
      "type": "error"
    },
    {
      "inputs": [
        {
          "internalType": "address",
          "name": "account",
          "type": "address"
        },
        {
          "internalType": "uint256",
          "name": "currentNonce",
          "type": "uint256"
        }
      ],
      "name": "InvalidAccountNonce",
      "type": "error"
    },
    {
      "inputs": [],
      "name": "InvalidShortString",
      "type": "error"
    },
    {
      "inputs": [
        {
          "internalType": "string",
          "name": "str",
          "type": "string"
        }
      ],
      "name": "StringTooLong",
      "type": "error"
    },
    {
      "anonymous": false,
      "inputs": [
        {
          "indexed": true,
          "internalType": "address",
          "name": "owner",
          "type": "address"
        },
        {
          "indexed": true,
          "internalType": "address",
          "name": "spender",
          "type": "address"
        },
        {
          "indexed": false,
          "internalType": "uint256",
          "name": "value",
          "type": "uint256"
        }
      ],
      "name": "Approval",
      "type": "event"
    },
    {
      "anonymous": false,
      "inputs": [],
      "name": "EIP712DomainChanged",
      "type": "event"
    },
    {
      "anonymous": false,
      "inputs": [
        {
          "indexed": false,
          "internalType": "address",
          "name": "account",
          "type": "address"
        }
      ],
      "name": "Paused",
      "type": "event"
    },
    {
      "anonymous": false,
      "inputs": [
        {
          "indexed": true,
          "internalType": "address",
          "name": "from",
          "type": "address"
        },
        {
          "indexed": true,
          "internalType": "address",
          "name": "to",
          "type": "address"
        },
        {
          "indexed": false,
          "internalType": "uint256",
          "name": "value",
          "type": "uint256"
        }
      ],
      "name": "Transfer",
      "type": "event"
    },
    {
      "anonymous": false,
      "inputs": [
        {
          "indexed": false,
          "internalType": "address",
          "name": "account",
          "type": "address"
        }
      ],
      "name": "Unpaused",
      "type": "event"
    },
    {
      "inputs": [],
      "name": "DOMAIN_SEPARATOR",
      "outputs": [
        {
          "internalType": "bytes32",
          "name": "",
          "type": "bytes32"
        }
      ],
      "stateMutability": "view",
      "type": "function"
    },
    {
      "inputs": [
        {
          "internalType": "address",
          "name": "owner",
          "type": "address"
        },
        {
          "internalType": "address",
          "name": "spender",
          "type": "address"
        }
      ],
      "name": "allowance",
      "outputs": [
        {
          "internalType": "uint256",
          "name": "",
          "type": "uint256"
        }
      ],
      "stateMutability": "view",
      "type": "function"
    },
    {
      "inputs": [
        {
          "internalType": "address",
          "name": "spender",
          "type": "address"
        },
        {
          "internalType": "uint256",
          "name": "value",
          "type": "uint256"
        }
      ],
      "name": "approve",
      "outputs": [
        {
          "internalType": "bool",
          "name": "",
          "type": "bool"
        }
      ],
      "stateMutability": "nonpayable",
      "type": "function"
    },
    {
      "inputs": [
        {
          "internalType": "address",
          "name": "account",
          "type": "address"
        }
      ],
      "name": "balanceOf",
      "outputs": [
        {
          "internalType": "uint256",
          "name": "",
          "type": "uint256"
        }
      ],
      "stateMutability": "view",
      "type": "function"
    },
    {
      "inputs": [
        {
          "internalType": "uint256",
          "name": "value",
          "type": "uint256"
        }
      ],
      "name": "burn",
      "outputs": [],
      "stateMutability": "nonpayable",
      "type": "function"
    },
    {
      "inputs": [
        {
          "internalType": "address",
          "name": "account",
          "type": "address"
        },
        {
          "internalType": "uint256",
          "name": "value",
          "type": "uint256"
        }
      ],
      "name": "burnFrom",
      "outputs": [],
      "stateMutability": "nonpayable",
      "type": "function"
    },
    {
      "inputs": [],
      "name": "decimals",
      "outputs": [
        {
          "internalType": "uint8",
          "name": "",
          "type": "uint8"
        }
      ],
      "stateMutability": "view",
      "type": "function"
    },
    {
      "inputs": [],
      "name": "eip712Domain",
      "outputs": [
        {
          "internalType": "bytes1",
          "name": "fields",
          "type": "bytes1"
        },
        {
          "internalType": "string",
          "name": "name",
          "type": "string"
        },
        {
          "internalType": "string",
          "name": "version",
          "type": "string"
        },
        {
          "internalType": "uint256",
          "name": "chainId",
          "type": "uint256"
        },
        {
          "internalType": "address",
          "name": "verifyingContract",
          "type": "address"
        },
        {
          "internalType": "bytes32",
          "name": "salt",
          "type": "bytes32"
        },
        {
          "internalType": "uint256[]",
          "name": "extensions",
          "type": "uint256[]"
        }
      ],
      "stateMutability": "view",
      "type": "function"
    },
    {
      "inputs": [],
      "name": "name",
      "outputs": [
        {
          "internalType": "string",
          "name": "",
          "type": "string"
        }
      ],
      "stateMutability": "view",
      "type": "function"
    },
    {
      "inputs": [
        {
          "internalType": "address",
          "name": "owner",
          "type": "address"
        }
      ],
      "name": "nonces",
      "outputs": [
        {
          "internalType": "uint256",
          "name": "",
          "type": "uint256"
        }
      ],
      "stateMutability": "view",
      "type": "function"
    },
    {
      "inputs": [],
      "name": "pause",
      "outputs": [],
      "stateMutability": "nonpayable",
      "type": "function"
    },
    {
      "inputs": [],
      "name": "paused",
      "outputs": [
        {
          "internalType": "bool",
          "name": "",
          "type": "bool"
        }
      ],
      "stateMutability": "view",
      "type": "function"
    },
    {
      "inputs": [
        {
          "internalType": "address",
          "name": "owner",
          "type": "address"
        },
        {
          "internalType": "address",
          "name": "spender",
          "type": "address"
        },
        {
          "internalType": "uint256",
          "name": "value",
          "type": "uint256"
        },
        {
          "internalType": "uint256",
          "name": "deadline",
          "type": "uint256"
        },
        {
          "internalType": "uint8",
          "name": "v",
          "type": "uint8"
        },
        {
          "internalType": "bytes32",
          "name": "r",
          "type": "bytes32"
        },
        {
          "internalType": "bytes32",
          "name": "s",
          "type": "bytes32"
        }
      ],
      "name": "permit",
      "outputs": [],
      "stateMutability": "nonpayable",
      "type": "function"
    },
    {
      "inputs": [],
      "name": "symbol",
      "outputs": [
        {
          "internalType": "string",
          "name": "",
          "type": "string"
        }
      ],
      "stateMutability": "view",
      "type": "function"
    },
    {
      "inputs": [],
      "name": "totalSupply",
      "outputs": [
        {
          "internalType": "uint256",
          "name": "",
          "type": "uint256"
        }
      ],
      "stateMutability": "view",
      "type": "function"
    },
    {
      "inputs": [
        {
          "internalType": "address",
          "name": "to",
          "type": "address"
        },
        {
          "internalType": "uint256",
          "name": "value",
          "type": "uint256"
        }
      ],
      "name": "transfer",
      "outputs": [
        {
          "internalType": "bool",
          "name": "",
          "type": "bool"
        }
      ],
      "stateMutability": "nonpayable",
      "type": "function"
    },
    {
      "inputs": [
        {
          "internalType": "address",
          "name": "from",
          "type": "address"
        },
        {
          "internalType": "address",
          "name": "to",
          "type": "address"
        },
        {
          "internalType": "uint256",
          "name": "value",
          "type": "uint256"
        }
      ],
      "name": "transferFrom",
      "outputs": [
        {
          "internalType": "bool",
          "name": "",
          "type": "bool"
        }
      ],
      "stateMutability": "nonpayable",
      "type": "function"
    },
    {
      "inputs": [],
      "name": "unpause",
      "outputs": [],
      "stateMutability": "nonpayable",
      "type": "function"
    }
  ],
  "bytecode": "0x6101606040523480156200001257600080fd5b50604051620018cf380380620018cf83398101604081905262000035916200046a565b6040805180820190915260018152603160f81b602082015284908190818660036200006183826200058f565b5060046200007082826200058f565b5062000082915083905060066200015c565b61012052620000938160076200015c565b61014052815160208084019190912060e052815190820120610100524660a0526200012160e05161010051604080517f8b73c3c69bb8fe3d512ecc4cf759cc79239f7b179b0ffacaa9a75d522b39400f60208201529081019290925260608201524660808201523060a082015260009060c00160405160208183030381529060405280519060200120905090565b60805250503060c05250600980546001600160a01b0319166001600160a01b03831617905562000152818362000195565b50505050620006d7565b60006020835110156200017c576200017483620001d7565b90506200018f565b816200018984826200058f565b5060ff90505b92915050565b6001600160a01b038216620001c55760405163551b36c360e01b8152600060048201526024015b60405180910390fd5b620001d3600083836200021a565b5050565b600080829050601f8151111562000205578260405163305a27a960e01b8152600401620001bc91906200065b565b8051620002128262000690565b179392505050565b620002278383836200022c565b505050565b6200023662000243565b620002278383836200026a565b60055460ff1615620002685760405163d93c066560e01b815260040160405180910390fd5b565b6001600160a01b038316620002995780600260008282546200028d9190620006b5565b909155506200030d9050565b6001600160a01b03831660009081526020819052604090205481811015620002ee5760405163b6b2c52d60e01b81526001600160a01b03851660048201526024810182905260448101839052606401620001bc565b6001600160a01b03841660009081526020819052604090209082900390555b6001600160a01b0382166200032b576002805482900390556200034a565b6001600160a01b03821660009081526020819052604090208054820190555b816001600160a01b0316836001600160a01b03167fddf252ad1be2c89b69c2b068fc378daa952ba7f163c4a11628f55a4df523b3ef836040516200039091815260200190565b60405180910390a3505050565b634e487b7160e01b600052604160045260246000fd5b60005b83811015620003d0578181015183820152602001620003b6565b50506000910152565b600082601f830112620003eb57600080fd5b81516001600160401b03808211156200040857620004086200039d565b604051601f8301601f19908116603f011681019082821181831017156200043357620004336200039d565b816040528381528660208588010111156200044d57600080fd5b62000460846020830160208901620003b3565b9695505050505050565b600080600080608085870312156200048157600080fd5b84516001600160401b03808211156200049957600080fd5b620004a788838901620003d9565b95506020870151915080821115620004be57600080fd5b50620004cd87828801620003d9565b60408701516060880151919550935090506001600160a01b0381168114620004f457600080fd5b939692955090935050565b600181811c908216806200051457607f821691505b6020821081036200053557634e487b7160e01b600052602260045260246000fd5b50919050565b601f82111562000227576000816000526020600020601f850160051c81016020861015620005665750805b601f850160051c820191505b81811015620005875782815560010162000572565b505050505050565b81516001600160401b03811115620005ab57620005ab6200039d565b620005c381620005bc8454620004ff565b846200053b565b602080601f831160018114620005fb5760008415620005e25750858301515b600019600386901b1c1916600185901b17855562000587565b600085815260208120601f198616915b828110156200062c578886015182559484019460019091019084016200060b565b50858210156200064b5787850151600019600388901b60f8161c191681555b5050505050600190811b01905550565b60208152600082518060208401526200067c816040850160208701620003b3565b601f01601f19169190910160400192915050565b80516020808301519190811015620005355760001960209190910360031b1b16919050565b808201808211156200018f57634e487b7160e01b600052601160045260246000fd5b60805160a05160c05160e05161010051610120516101405161119d620007326000396000610922015260006108f5015260006107d8015260006107b00152600061070b015260006107350152600061075f015261119d6000f3fe608060405234801561001057600080fd5b50600436106101165760003560e01c806370a08231116100a257806384b0196e1161007157806384b0196e1461021757806395d89b4114610232578063a9059cbb1461023a578063d505accf1461024d578063dd62ed3e1461026057600080fd5b806370a08231146101c057806379cc6790146101e95780637ecebe00146101fc5780638456cb591461020f57600080fd5b8063313ce567116100e9578063313ce567146101815780633644e515146101905780633f4ba83a1461019857806342966c68146101a25780635c975abb146101b557600080fd5b806306fdde031461011b578063095ea7b31461013957806318160ddd1461015c57806323b872dd1461016e575b600080fd5b610123610299565b6040516101309190610ee7565b60405180910390f35b61014c610147366004610f1d565b61032b565b6040519015158152602001610130565b6002545b604051908152602001610130565b61014c61017c366004610f47565b610345565b60405160128152602001610130565b610160610369565b6101a0610378565b005b6101a06101b0366004610f83565b6103d6565b60055460ff1661014c565b6101606101ce366004610f9c565b6001600160a01b031660009081526020819052604090205490565b6101a06101f7366004610f1d565b6103e3565b61016061020a366004610f9c565b6103fc565b6101a061041a565b61021f610471565b6040516101309796959493929190610fb7565b6101236104b7565b61014c610248366004610f1d565b6104c6565b6101a061025b366004611050565b6104d4565b61016061026e3660046110c3565b6001600160a01b03918216600090815260016020908152604080832093909416825291909152205490565b6060600380546102a8906110f6565b80601f01602080910402602001604051908101604052809291908181526020018280546102d4906110f6565b80156103215780601f106102f657610100808354040283529160200191610321565b820191906000526020600020905b81548152906001019060200180831161030457829003601f168201915b5050505050905090565b60003361033981858561060e565b60019150505b92915050565b600033610353858285610620565b61035e85858561069f565b506001949350505050565b60006103736106fe565b905090565b6009546001600160a01b0316336001600160a01b0316146103cc5760405162461bcd60e51b81526020600482015260096024820152682737ba1037bbb732b960b91b60448201526064015b60405180910390fd5b6103d4610829565b565b6103e0338261087b565b50565b6103ee823383610620565b6103f8828261087b565b5050565b6001600160a01b03811660009081526008602052604081205461033f565b6009546001600160a01b0316336001600160a01b0316146104695760405162461bcd60e51b81526020600482015260096024820152682737ba1037bbb732b960b91b60448201526064016103c3565b6103d46108b1565b6000606080600080600060606104856108ee565b61048d61091b565b60408051600080825260208201909252600f60f81b9b939a50919850469750309650945092509050565b6060600480546102a8906110f6565b60003361033981858561069f565b834211156104f85760405163313c898160e11b8152600481018590526024016103c3565b60007f6e71edae12b1b97f4d1f60370fef10105fa2faae0126114a169c64845d6126c98888886105458c6001600160a01b0316600090815260086020526040902080546001810190915590565b6040805160208101969096526001600160a01b0394851690860152929091166060840152608083015260a082015260c0810186905260e00160405160208183030381529060405280519060200120905060006105a082610948565b905060006105b082878787610975565b9050896001600160a01b0316816001600160a01b0316146105f7576040516325c0072360e11b81526001600160a01b0380831660048301528b1660248201526044016103c3565b6106028a8a8a61060e565b50505050505050505050565b61061b83838360016109a3565b505050565b6001600160a01b03838116600090815260016020908152604080832093861683529290522054600019811015610699578181101561068a576040516378bbd42f60e01b81526001600160a01b038416600482015260248101829052604481018390526064016103c3565b610699848484840360006109a3565b50505050565b6001600160a01b0383166106c957604051630b45b23760e41b8152600060048201526024016103c3565b6001600160a01b0382166106f35760405163551b36c360e01b8152600060048201526024016103c3565b61061b838383610a78565b6000306001600160a01b037f00000000000000000000000000000000000000000000000000000000000000001614801561075757507f000000000000000000000000000000000000000000000000000000000000000046145b1561078157507f000000000000000000000000000000000000000000000000000000000000000090565b610373604080517f8b73c3c69bb8fe3d512ecc4cf759cc79239f7b179b0ffacaa9a75d522b39400f60208201527f0000000000000000000000000000000000000000000000000000000000000000918101919091527f000000000000000000000000000000000000000000000000000000000000000060608201524660808201523060a082015260009060c00160405160208183030381529060405280519060200120905090565b610831610a83565b6005805460ff191690557f5db9ee0a495bf2e6ff9c91a7834c1ba4fdd244a5e8aa4e537bd38aeae4b073aa335b6040516001600160a01b03909116815260200160405180910390a1565b6001600160a01b0382166108a557604051630b45b23760e41b8152600060048201526024016103c3565b6103f882600083610a78565b6108b9610aa6565b6005805460ff191660011790557f62e78cea01bee320cd4e420270b5ea74000d11b0c9f74754ebdbfc544b05a25861085e3390565b60606103737f00000000000000000000000000000000000000000000000000000000000000006006610aca565b60606103737f00000000000000000000000000000000000000000000000000000000000000006007610aca565b600061033f6109556106fe565b8360405161190160f01b8152600281019290925260228201526042902090565b60008060008061098788888888610b75565b9250925092506109978282610c44565b50909695505050505050565b6001600160a01b0384166109cd5760405163478efcb160e01b8152600060048201526024016103c3565b6001600160a01b0383166109f7576040516325dc6edb60e11b8152600060048201526024016103c3565b6001600160a01b038085166000908152600160209081526040808320938716835292905220829055801561069957826001600160a01b0316846001600160a01b03167f8c5be1e5ebec7d5bd14f71427d1e84f3dd0314c0f7b2291e5b200ac8c7c3b92584604051610a6a91815260200190565b60405180910390a350505050565b61061b838383610cfd565b60055460ff166103d457604051638dfc202b60e01b815260040160405180910390fd5b60055460ff16156103d45760405163d93c066560e01b815260040160405180910390fd5b606060ff8314610ae457610add83610d10565b905061033f565b818054610af0906110f6565b80601f0160208091040260200160405190810160405280929190818152602001828054610b1c906110f6565b8015610b695780601f10610b3e57610100808354040283529160200191610b69565b820191906000526020600020905b815481529060010190602001808311610b4c57829003601f168201915b5050505050905061033f565b600080807f7fffffffffffffffffffffffffffffff5d576e7357a4501ddfe92f46681b20a0841115610bb05750600091506003905082610c3a565b604080516000808252602082018084528a905260ff891692820192909252606081018790526080810186905260019060a0016020604051602081039080840390855afa158015610c04573d6000803e3d6000fd5b5050604051601f1901519150506001600160a01b038116610c3057506000925060019150829050610c3a565b9250600091508190505b9450945094915050565b6000826003811115610c5857610c58611130565b03610c61575050565b6001826003811115610c7557610c75611130565b03610c935760405163f645eedf60e01b815260040160405180910390fd5b6002826003811115610ca757610ca7611130565b03610cc85760405163fce698f760e01b8152600481018290526024016103c3565b6003826003811115610cdc57610cdc611130565b036103f8576040516335e2f38360e21b8152600481018290526024016103c3565b610d05610aa6565b61061b838383610d4f565b60606000610d1d83610e79565b604080516020808252818301909252919250600091906020820181803683375050509182525060208101929092525090565b6001600160a01b038316610d7a578060026000828254610d6f9190611146565b90915550610dec9050565b6001600160a01b03831660009081526020819052604090205481811015610dcd5760405163b6b2c52d60e01b81526001600160a01b038516600482015260248101829052604481018390526064016103c3565b6001600160a01b03841660009081526020819052604090209082900390555b6001600160a01b038216610e0857600280548290039055610e27565b6001600160a01b03821660009081526020819052604090208054820190555b816001600160a01b0316836001600160a01b03167fddf252ad1be2c89b69c2b068fc378daa952ba7f163c4a11628f55a4df523b3ef83604051610e6c91815260200190565b60405180910390a3505050565b600060ff8216601f81111561033f57604051632cd44ac360e21b815260040160405180910390fd5b6000815180845260005b81811015610ec757602081850181015186830182015201610eab565b506000602082860101526020601f19601f83011685010191505092915050565b602081526000610efa6020830184610ea1565b9392505050565b80356001600160a01b0381168114610f1857600080fd5b919050565b60008060408385031215610f3057600080fd5b610f3983610f01565b946020939093013593505050565b600080600060608486031215610f5c57600080fd5b610f6584610f01565b9250610f7360208501610f01565b9150604084013590509250925092565b600060208284031215610f9557600080fd5b5035919050565b600060208284031215610fae57600080fd5b610efa82610f01565b60ff60f81b881681526000602060e06020840152610fd860e084018a610ea1565b8381036040850152610fea818a610ea1565b606085018990526001600160a01b038816608086015260a0850187905284810360c08601528551808252602080880193509091019060005b8181101561103e57835183529284019291840191600101611022565b50909c9b505050505050505050505050565b600080600080600080600060e0888a03121561106b57600080fd5b61107488610f01565b965061108260208901610f01565b95506040880135945060608801359350608088013560ff811681146110a657600080fd5b9699959850939692959460a0840135945060c09093013592915050565b600080604083850312156110d657600080fd5b6110df83610f01565b91506110ed60208401610f01565b90509250929050565b600181811c9082168061110a57607f821691505b60208210810361112a57634e487b7160e01b600052602260045260246000fd5b50919050565b634e487b7160e01b600052602160045260246000fd5b8082018082111561033f57634e487b7160e01b600052601160045260246000fdfea26469706673582212208a36798e6040014ca01f29c9e6fb1304e1ed9aa39c24d90e02f9da17922dfb7164736f6c63430008180033",
  "linkReferences": {},
  "deployedLinkReferences": {}
}