{"src/contracts/test/NoncesTest.sol":{"NoncesTest":{"abi":[{"inputs":[{"internalType":"address","name":"account","type":"address"},{"internalType":"uint256","name":"currentNonce","type":"uint256"}],"name":"InvalidAccountNonce","type":"error"},{"inputs":[{"internalType":"address","name":"owner","type":"address"}],"name":"getNonce","outputs":[{"internalType":"uint256","name":"","type":"uint256"}],"stateMutability":"view","type":"function"},{"inputs":[{"internalType":"address","name":"owner","type":"address"}],"name":"nonces","outputs":[{"internalType":"uint256","name":"","type":"uint256"}],"stateMutability":"view","type":"function"},{"inputs":[{"internalType":"address","name":"owner","type":"address"}],"name":"useNonce","outputs":[{"internalType":"uint256","name":"","type":"uint256"}],"stateMutability":"nonpayable","type":"function"}],"evm":{"bytecode":{"linkReferences":{},"object":"608060405234801561001057600080fd5b50610153806100206000396000f3fe608060405234801561001057600080fd5b50600436106100415760003560e01c80632d0335ab146100465780637ecebe001461006b578063d97f4b5314610094575b600080fd5b6100596100543660046100ed565b6100a7565b60405190815260200160405180910390f35b6100596100793660046100ed565b6001600160a01b031660009081526020819052604090205490565b6100596100a23660046100ed565b6100c7565b6001600160a01b0381166000908152602081905260408120545b92915050565b6001600160a01b03811660009081526020819052604081208054600181019091556100c1565b6000602082840312156100ff57600080fd5b81356001600160a01b038116811461011657600080fd5b939250505056fea26469706673582212202f40dad729a560e8fa4fb491e92f8c36e283a153c7b77d6bea7c41a6eec7414d64736f6c63430008180033","opcodes":"PUSH1 0x80 PUSH1 0x40 MSTORE CALLVALUE DUP1 ISZERO PUSH2 0x10 JUMPI PUSH1 0x0 DUP1 REVERT JUMPDEST POP PUSH2 0x153 DUP1 PUSH2 0x20 PUSH1 0x0 CODECOPY PUSH1 0x0 RETURN INVALID PUSH1 0x80 PUSH1 0x40 MSTORE CALLVALUE DUP1 ISZERO PUSH2 0x10 JUMPI PUSH1 0x0 DUP1 REVERT JUMPDEST POP PUSH1 0x4 CALLDATASIZE LT PUSH2 0x41 JUMPI PUSH1 0x0 CALLDATALOAD PUSH1 0xE0 SHR DUP1 PUSH4 0x2D0335AB EQ PUSH2 0x46 JUMPI DUP1 PUSH4 0x7ECEBE00 EQ PUSH2 0x6B JUMPI DUP1 PUSH4 0xD97F4B53 EQ PUSH2 0x94 JUMPI JUMPDEST PUSH1 0x0 DUP1 REVERT JUMPDEST PUSH2 0x59 PUSH2 0x54 CALLDATASIZE PUSH1 0x4 PUSH2 0xED JUMP JUMPDEST PUSH2 0xA7 JUMP JUMPDEST PUSH1 0x40 MLOAD SWAP1 DUP2 MSTORE PUSH1 0x20 ADD PUSH1 0x40 MLOAD DUP1 SWAP2 SUB SWAP1 RETURN JUMPDEST PUSH2 0x59 PUSH2 0x79 CALLDATASIZE PUSH1 0x4 PUSH2 0xED JUMP JUMPDEST PUSH1 0x1 PUSH1 0x1 PUSH1 0xA0 SHL SUB AND PUSH1 0x0 SWAP1 DUP2 MSTORE PUSH1 0x20 DUP2 SWAP1 MSTORE PUSH1 0x40 SWAP1 KECCAK256 SLOAD SWAP1 JUMP JUMPDEST PUSH2 0x59 PUSH2 0xA2 CALLDATASIZE PUSH1 0x4 PUSH2 0xED JUMP JUMPDEST PUSH2 0xC7 JUMP JUMPDEST PUSH1 0x1 PUSH1 0x1 PUSH1 0xA0 SHL SUB DUP2 AND PUSH1 0x0 SWAP1 DUP2 MSTORE PUSH1 0x20 DUP2 SWAP1 MSTORE PUSH1 0x40 DUP2 KECCAK256 SLOAD JUMPDEST SWAP3 SWAP2 POP POP JUMP JUMPDEST PUSH1 0x1 PUSH1 0x1 PUSH1 0xA0 SHL SUB DUP2 AND PUSH1 0x0 SWAP1 DUP2 MSTORE PUSH1 0x20 DUP2 SWAP1 MSTORE PUSH1 0x40 DUP2 KECCAK256 DUP1 SLOAD PUSH1 0x1 DUP2 ADD SWAP1 SWAP2 SSTORE PUSH2 0xC1 JUMP JUMPDEST PUSH1 0x0 PUSH1 0x20 DUP3 DUP5 SUB SLT ISZERO PUSH2 0xFF JUMPI PUSH1 0x0 DUP1 REVERT JUMPDEST DUP2 CALLDATALOAD PUSH1 0x1 PUSH1 0x1 PUSH1 0xA0 SHL SUB DUP2 AND DUP2 EQ PUSH2 0x116 JUMPI PUSH1 0x0 DUP1 REVERT JUMPDEST SWAP4 SWAP3 POP POP POP JUMP INVALID LOG2 PUSH5 0x6970667358 0x22 SLT KECCAK256 0x2F BLOCKHASH 0xDA 0xD7 0x29 0xA5 PUSH1 0xE8 STATICCALL 0x4F 0xB4 SWAP2 0xE9 0x2F DUP13 CALLDATASIZE 0xE2 DUP4 LOG1 MSTORE8 0xC7 0xB7 PUSH30 0x6BEA7C41A6EEC7414D64736F6C6343000818003300000000000000000000 "},"methodIdentifiers":{"getNonce(address)":"2d0335ab","nonces(address)":"7ecebe00","useNonce(address)":"d97f4b53"}}}}}